{
  "contractName": "nft_contract",
  "abi": [
    {
      "inputs": [
        {
          "internalType": "string",
          "name": "initial_uri",
          "type": "string"
        }
      ],
      "stateMutability": "nonpayable",
      "type": "constructor"
    },
    {
      "anonymous": false,
      "inputs": [
        {
          "indexed": true,
          "internalType": "address",
          "name": "account",
          "type": "address"
        },
        {
          "indexed": true,
          "internalType": "address",
          "name": "operator",
          "type": "address"
        },
        {
          "indexed": false,
          "internalType": "bool",
          "name": "approved",
          "type": "bool"
        }
      ],
      "name": "ApprovalForAll",
      "type": "event"
    },
    {
      "anonymous": false,
      "inputs": [
        {
          "indexed": true,
          "internalType": "address",
          "name": "previousOwner",
          "type": "address"
        },
        {
          "indexed": true,
          "internalType": "address",
          "name": "newOwner",
          "type": "address"
        }
      ],
      "name": "OwnershipTransferred",
      "type": "event"
    },
    {
      "anonymous": false,
      "inputs": [
        {
          "indexed": true,
          "internalType": "address",
          "name": "operator",
          "type": "address"
        },
        {
          "indexed": true,
          "internalType": "address",
          "name": "from",
          "type": "address"
        },
        {
          "indexed": true,
          "internalType": "address",
          "name": "to",
          "type": "address"
        },
        {
          "indexed": false,
          "internalType": "uint256[]",
          "name": "ids",
          "type": "uint256[]"
        },
        {
          "indexed": false,
          "internalType": "uint256[]",
          "name": "values",
          "type": "uint256[]"
        }
      ],
      "name": "TransferBatch",
      "type": "event"
    },
    {
      "anonymous": false,
      "inputs": [
        {
          "indexed": true,
          "internalType": "address",
          "name": "operator",
          "type": "address"
        },
        {
          "indexed": true,
          "internalType": "address",
          "name": "from",
          "type": "address"
        },
        {
          "indexed": true,
          "internalType": "address",
          "name": "to",
          "type": "address"
        },
        {
          "indexed": false,
          "internalType": "uint256",
          "name": "id",
          "type": "uint256"
        },
        {
          "indexed": false,
          "internalType": "uint256",
          "name": "value",
          "type": "uint256"
        }
      ],
      "name": "TransferSingle",
      "type": "event"
    },
    {
      "anonymous": false,
      "inputs": [
        {
          "indexed": false,
          "internalType": "string",
          "name": "value",
          "type": "string"
        },
        {
          "indexed": true,
          "internalType": "uint256",
          "name": "id",
          "type": "uint256"
        }
      ],
      "name": "URI",
      "type": "event"
    },
    {
      "inputs": [],
      "name": "Token_Id",
      "outputs": [
        {
          "internalType": "uint256",
          "name": "",
          "type": "uint256"
        }
      ],
      "stateMutability": "view",
      "type": "function"
    },
    {
      "inputs": [
        {
          "internalType": "address",
          "name": "account",
          "type": "address"
        },
        {
          "internalType": "uint256",
          "name": "id",
          "type": "uint256"
        }
      ],
      "name": "balanceOf",
      "outputs": [
        {
          "internalType": "uint256",
          "name": "",
          "type": "uint256"
        }
      ],
      "stateMutability": "view",
      "type": "function"
    },
    {
      "inputs": [
        {
          "internalType": "address[]",
          "name": "accounts",
          "type": "address[]"
        },
        {
          "internalType": "uint256[]",
          "name": "ids",
          "type": "uint256[]"
        }
      ],
      "name": "balanceOfBatch",
      "outputs": [
        {
          "internalType": "uint256[]",
          "name": "",
          "type": "uint256[]"
        }
      ],
      "stateMutability": "view",
      "type": "function"
    },
    {
      "inputs": [],
      "name": "feeForAbilityToMint",
      "outputs": [
        {
          "internalType": "uint256",
          "name": "",
          "type": "uint256"
        }
      ],
      "stateMutability": "view",
      "type": "function"
    },
    {
      "inputs": [
        {
          "internalType": "address",
          "name": "account",
          "type": "address"
        },
        {
          "internalType": "address",
          "name": "operator",
          "type": "address"
        }
      ],
      "name": "isApprovedForAll",
      "outputs": [
        {
          "internalType": "bool",
          "name": "",
          "type": "bool"
        }
      ],
      "stateMutability": "view",
      "type": "function"
    },
    {
      "inputs": [
        {
          "internalType": "address",
          "name": "",
          "type": "address"
        }
      ],
      "name": "is_User_approved_to_mint",
      "outputs": [
        {
          "internalType": "bool",
          "name": "",
          "type": "bool"
        }
      ],
      "stateMutability": "view",
      "type": "function"
    },
    {
      "inputs": [],
      "name": "owner",
      "outputs": [
        {
          "internalType": "address",
          "name": "",
          "type": "address"
        }
      ],
      "stateMutability": "view",
      "type": "function"
    },
    {
      "inputs": [],
      "name": "renounceOwnership",
      "outputs": [],
      "stateMutability": "nonpayable",
      "type": "function"
    },
    {
      "inputs": [
        {
          "internalType": "address",
          "name": "from",
          "type": "address"
        },
        {
          "internalType": "address",
          "name": "to",
          "type": "address"
        },
        {
          "internalType": "uint256[]",
          "name": "ids",
          "type": "uint256[]"
        },
        {
          "internalType": "uint256[]",
          "name": "amounts",
          "type": "uint256[]"
        },
        {
          "internalType": "bytes",
          "name": "data",
          "type": "bytes"
        }
      ],
      "name": "safeBatchTransferFrom",
      "outputs": [],
      "stateMutability": "nonpayable",
      "type": "function"
    },
    {
      "inputs": [
        {
          "internalType": "address",
          "name": "from",
          "type": "address"
        },
        {
          "internalType": "address",
          "name": "to",
          "type": "address"
        },
        {
          "internalType": "uint256",
          "name": "id",
          "type": "uint256"
        },
        {
          "internalType": "uint256",
          "name": "amount",
          "type": "uint256"
        },
        {
          "internalType": "bytes",
          "name": "data",
          "type": "bytes"
        }
      ],
      "name": "safeTransferFrom",
      "outputs": [],
      "stateMutability": "nonpayable",
      "type": "function"
    },
    {
      "inputs": [
        {
          "internalType": "address",
          "name": "operator",
          "type": "address"
        },
        {
          "internalType": "bool",
          "name": "approved",
          "type": "bool"
        }
      ],
      "name": "setApprovalForAll",
      "outputs": [],
      "stateMutability": "nonpayable",
      "type": "function"
    },
    {
      "inputs": [
        {
          "internalType": "bytes4",
          "name": "interfaceId",
          "type": "bytes4"
        }
      ],
      "name": "supportsInterface",
      "outputs": [
        {
          "internalType": "bool",
          "name": "",
          "type": "bool"
        }
      ],
      "stateMutability": "view",
      "type": "function"
    },
    {
      "inputs": [
        {
          "internalType": "address",
          "name": "newOwner",
          "type": "address"
        }
      ],
      "name": "transferOwnership",
      "outputs": [],
      "stateMutability": "nonpayable",
      "type": "function"
    },
    {
      "stateMutability": "payable",
      "type": "receive"
    },
    {
      "inputs": [
        {
          "internalType": "string",
          "name": "newuri",
          "type": "string"
        }
      ],
      "name": "mint",
      "outputs": [],
      "stateMutability": "nonpayable",
      "type": "function"
    },
    {
      "inputs": [],
      "name": "approve_user_to_mint",
      "outputs": [],
      "stateMutability": "payable",
      "type": "function"
    },
    {
      "inputs": [
        {
          "internalType": "uint256",
          "name": "id",
          "type": "uint256"
        }
      ],
      "name": "uri",
      "outputs": [
        {
          "internalType": "string",
          "name": "",
          "type": "string"
        }
      ],
      "stateMutability": "view",
      "type": "function"
    },
    {
      "inputs": [],
      "name": "withdraw_minting_fees",
      "outputs": [],
      "stateMutability": "nonpayable",
      "type": "function"
    }
  ],
  "bytecode": "0x6080604052600060055567016345785d8a00006006553480156200002257600080fd5b506040516200453938038062004539833981810160405281019062000048919062000869565b806200005a816200014260201b60201c565b506200007b6200006f6200016a60201b60201c565b6200017260201b60201c565b6001600481905550620000b8620000976200016a60201b60201c565b6005546001604051806020016040528060008152506200023860201b60201c565b600160056000828254620000cd9190620008f3565b92505081905550600160076000620000ea6200016a60201b60201c565b73ffffffffffffffffffffffffffffffffffffffff1673ffffffffffffffffffffffffffffffffffffffff16815260200190815260200160002060006101000a81548160ff0219169083151502179055505062001185565b80600860006005548152602001908152602001600020908162000166919062000b91565b5050565b600033905090565b6000600360009054906101000a900473ffffffffffffffffffffffffffffffffffffffff16905081600360006101000a81548173ffffffffffffffffffffffffffffffffffffffff021916908373ffffffffffffffffffffffffffffffffffffffff1602179055508173ffffffffffffffffffffffffffffffffffffffff168173ffffffffffffffffffffffffffffffffffffffff167f8be0079c531659141344cd1fd0a4f28419497f9722a3daafe3b4186f6b6457e060405160405180910390a35050565b600073ffffffffffffffffffffffffffffffffffffffff168473ffffffffffffffffffffffffffffffffffffffff1603620002aa576040517f08c379a0000000000000000000000000000000000000000000000000000000008152600401620002a19062000cff565b60405180910390fd5b6000620002bc6200016a60201b60201c565b90506000620002d1856200041f60201b60201c565b90506000620002e6856200041f60201b60201c565b9050620002ff83600089858589620004a060201b60201c565b8460008088815260200190815260200160002060008973ffffffffffffffffffffffffffffffffffffffff1673ffffffffffffffffffffffffffffffffffffffff1681526020019081526020016000206000828254620003609190620008f3565b925050819055508673ffffffffffffffffffffffffffffffffffffffff16600073ffffffffffffffffffffffffffffffffffffffff168473ffffffffffffffffffffffffffffffffffffffff167fc3d58168c5ae7397731d063d5bbf3d657854427343f4c083240f7aacaa2d0f628989604051620003e092919062000d32565b60405180910390a4620003ff83600089858589620004a860201b60201c565b6200041683600089898989620004b060201b60201c565b50505050505050565b60606000600167ffffffffffffffff811115620004415762000440620006fb565b5b604051908082528060200260200182016040528015620004705781602001602082028036833780820191505090505b50905082816000815181106200048b576200048a62000d5f565b5b60200260200101818152505080915050919050565b505050505050565b505050505050565b620004dc8473ffffffffffffffffffffffffffffffffffffffff16620006a960201b62000c3d1760201c565b15620006a1578373ffffffffffffffffffffffffffffffffffffffff1663f23a6e6187878686866040518663ffffffff1660e01b81526004016200052595949392919062000e30565b6020604051808303816000875af19250505080156200056457506040513d601f19601f8201168201806040525081019062000561919062000ef1565b60015b62000615576200057362000f30565b806308c379a003620005d657506200058a62000f55565b80620005975750620005d8565b806040517f08c379a0000000000000000000000000000000000000000000000000000000008152600401620005cd919062001031565b60405180910390fd5b505b6040517f08c379a00000000000000000000000000000000000000000000000000000000081526004016200060c90620010cb565b60405180910390fd5b63f23a6e6160e01b7bffffffffffffffffffffffffffffffffffffffffffffffffffffffff1916817bffffffffffffffffffffffffffffffffffffffffffffffffffffffff1916146200069f576040517f08c379a0000000000000000000000000000000000000000000000000000000008152600401620006969062001163565b60405180910390fd5b505b505050505050565b6000808273ffffffffffffffffffffffffffffffffffffffff163b119050919050565b6000604051905090565b600080fd5b600080fd5b600080fd5b600080fd5b6000601f19601f8301169050919050565b7f4e487b7100000000000000000000000000000000000000000000000000000000600052604160045260246000fd5b6200073582620006ea565b810181811067ffffffffffffffff82111715620007575762000756620006fb565b5b80604052505050565b60006200076c620006cc565b90506200077a82826200072a565b919050565b600067ffffffffffffffff8211156200079d576200079c620006fb565b5b620007a882620006ea565b9050602081019050919050565b60005b83811015620007d5578082015181840152602081019050620007b8565b83811115620007e5576000848401525b50505050565b600062000802620007fc846200077f565b62000760565b905082815260208101848484011115620008215762000820620006e5565b5b6200082e848285620007b5565b509392505050565b600082601f8301126200084e576200084d620006e0565b5b815162000860848260208601620007eb565b91505092915050565b600060208284031215620008825762000881620006d6565b5b600082015167ffffffffffffffff811115620008a357620008a2620006db565b5b620008b18482850162000836565b91505092915050565b6000819050919050565b7f4e487b7100000000000000000000000000000000000000000000000000000000600052601160045260246000fd5b60006200090082620008ba565b91506200090d83620008ba565b9250827fffffffffffffffffffffffffffffffffffffffffffffffffffffffffffffffff03821115620009455762000944620008c4565b5b828201905092915050565b600081519050919050565b7f4e487b7100000000000000000000000000000000000000000000000000000000600052602260045260246000fd5b60006002820490506001821680620009a357607f821691505b602082108103620009b957620009b86200095b565b5b50919050565b60008190508160005260206000209050919050565b60006020601f8301049050919050565b600082821b905092915050565b60006008830262000a237fffffffffffffffffffffffffffffffffffffffffffffffffffffffffffffffff82620009e4565b62000a2f8683620009e4565b95508019841693508086168417925050509392505050565b6000819050919050565b600062000a7262000a6c62000a6684620008ba565b62000a47565b620008ba565b9050919050565b6000819050919050565b62000a8e8362000a51565b62000aa662000a9d8262000a79565b848454620009f1565b825550505050565b600090565b62000abd62000aae565b62000aca81848462000a83565b505050565b5b8181101562000af25762000ae660008262000ab3565b60018101905062000ad0565b5050565b601f82111562000b415762000b0b81620009bf565b62000b1684620009d4565b8101602085101562000b26578190505b62000b3e62000b3585620009d4565b83018262000acf565b50505b505050565b600082821c905092915050565b600062000b666000198460080262000b46565b1980831691505092915050565b600062000b81838362000b53565b9150826002028217905092915050565b62000b9c8262000950565b67ffffffffffffffff81111562000bb85762000bb7620006fb565b5b62000bc482546200098a565b62000bd182828562000af6565b600060209050601f83116001811462000c09576000841562000bf4578287015190505b62000c00858262000b73565b86555062000c70565b601f19841662000c1986620009bf565b60005b8281101562000c435784890151825560018201915060208501945060208101905062000c1c565b8683101562000c63578489015162000c5f601f89168262000b53565b8355505b6001600288020188555050505b505050505050565b600082825260208201905092915050565b7f455243313135353a206d696e7420746f20746865207a65726f2061646472657360008201527f7300000000000000000000000000000000000000000000000000000000000000602082015250565b600062000ce760218362000c78565b915062000cf48262000c89565b604082019050919050565b6000602082019050818103600083015262000d1a8162000cd8565b9050919050565b62000d2c81620008ba565b82525050565b600060408201905062000d49600083018562000d21565b62000d58602083018462000d21565b9392505050565b7f4e487b7100000000000000000000000000000000000000000000000000000000600052603260045260246000fd5b600073ffffffffffffffffffffffffffffffffffffffff82169050919050565b600062000dbb8262000d8e565b9050919050565b62000dcd8162000dae565b82525050565b600081519050919050565b600082825260208201905092915050565b600062000dfc8262000dd3565b62000e08818562000dde565b935062000e1a818560208601620007b5565b62000e2581620006ea565b840191505092915050565b600060a08201905062000e47600083018862000dc2565b62000e56602083018762000dc2565b62000e65604083018662000d21565b62000e74606083018562000d21565b818103608083015262000e88818462000def565b90509695505050505050565b60007fffffffff0000000000000000000000000000000000000000000000000000000082169050919050565b62000ecb8162000e94565b811462000ed757600080fd5b50565b60008151905062000eeb8162000ec0565b92915050565b60006020828403121562000f0a5762000f09620006d6565b5b600062000f1a8482850162000eda565b91505092915050565b60008160e01c9050919050565b600060033d111562000f525760046000803e62000f4f60005162000f23565b90505b90565b600060443d1062000fed5762000f6a620006cc565b60043d036004823e80513d602482011167ffffffffffffffff8211171562000f9457505062000fed565b808201805167ffffffffffffffff81111562000fb4575050505062000fed565b80602083010160043d03850181111562000fd357505050505062000fed565b62000fe4826020018501866200072a565b82955050505050505b90565b600062000ffd8262000950565b62001009818562000c78565b93506200101b818560208601620007b5565b6200102681620006ea565b840191505092915050565b600060208201905081810360008301526200104d818462000ff0565b905092915050565b7f455243313135353a207472616e7366657220746f206e6f6e204552433131353560008201527f526563656976657220696d706c656d656e746572000000000000000000000000602082015250565b6000620010b360348362000c78565b9150620010c08262001055565b604082019050919050565b60006020820190508181036000830152620010e681620010a4565b9050919050565b7f455243313135353a204552433131353552656365697665722072656a6563746560008201527f6420746f6b656e73000000000000000000000000000000000000000000000000602082015250565b60006200114b60288362000c78565b91506200115882620010ed565b604082019050919050565b600060208201905081810360008301526200117e816200113c565b9050919050565b6133a480620011956000396000f3fe6080604052600436106101015760003560e01c80638dcc0c5d11610095578063d85d3d2711610064578063d85d3d271461033f578063e985e9c514610368578063eb1786a6146103a5578063f242432a146103af578063f2fde38b146103d857610108565b80638dcc0c5d14610297578063a22cb465146102ae578063cba7cfb2146102d7578063cc07293c1461030257610108565b80632eb2c2d6116100d15780632eb2c2d6146101ef5780634e1273f414610218578063715018a6146102555780638da5cb5b1461026c57610108565b8062fdd58e1461010d57806301ffc9a71461014a5780630673d7d0146101875780630e89341c146101b257610108565b3661010857005b600080fd5b34801561011957600080fd5b50610134600480360381019061012f9190611bf4565b610401565b6040516101419190611c43565b60405180910390f35b34801561015657600080fd5b50610171600480360381019061016c9190611cb6565b6104c9565b60405161017e9190611cfe565b60405180910390f35b34801561019357600080fd5b5061019c6105ab565b6040516101a99190611c43565b60405180910390f35b3480156101be57600080fd5b506101d960048036038101906101d49190611d19565b6105b1565b6040516101e69190611ddf565b60405180910390f35b3480156101fb57600080fd5b5061021660048036038101906102119190611ffe565b610656565b005b34801561022457600080fd5b5061023f600480360381019061023a9190612190565b6106f7565b60405161024c91906122c6565b60405180910390f35b34801561026157600080fd5b5061026a610810565b005b34801561027857600080fd5b50610281610824565b60405161028e91906122f7565b60405180910390f35b3480156102a357600080fd5b506102ac61084e565b005b3480156102ba57600080fd5b506102d560048036038101906102d0919061233e565b6108a6565b005b3480156102e357600080fd5b506102ec6108bc565b6040516102f99190611c43565b60405180910390f35b34801561030e57600080fd5b506103296004803603810190610324919061237e565b6108c2565b6040516103369190611cfe565b60405180910390f35b34801561034b57600080fd5b506103666004803603810190610361919061244c565b6108e2565b005b34801561037457600080fd5b5061038f600480360381019061038a9190612495565b610a15565b60405161039c9190611cfe565b60405180910390f35b6103ad610aa9565b005b3480156103bb57600080fd5b506103d660048036038101906103d191906124d5565b610b19565b005b3480156103e457600080fd5b506103ff60048036038101906103fa919061237e565b610bba565b005b60008073ffffffffffffffffffffffffffffffffffffffff168373ffffffffffffffffffffffffffffffffffffffff1603610471576040517f08c379a0000000000000000000000000000000000000000000000000000000008152600401610468906125de565b60405180910390fd5b60008083815260200190815260200160002060008473ffffffffffffffffffffffffffffffffffffffff1673ffffffffffffffffffffffffffffffffffffffff16815260200190815260200160002054905092915050565b60007fd9b67a26000000000000000000000000000000000000000000000000000000007bffffffffffffffffffffffffffffffffffffffffffffffffffffffff1916827bffffffffffffffffffffffffffffffffffffffffffffffffffffffff1916148061059457507f0e89341c000000000000000000000000000000000000000000000000000000007bffffffffffffffffffffffffffffffffffffffffffffffffffffffff1916827bffffffffffffffffffffffffffffffffffffffffffffffffffffffff1916145b806105a457506105a382610c60565b5b9050919050565b60055481565b60606008600083815260200190815260200160002080546105d19061262d565b80601f01602080910402602001604051908101604052809291908181526020018280546105fd9061262d565b801561064a5780601f1061061f5761010080835404028352916020019161064a565b820191906000526020600020905b81548152906001019060200180831161062d57829003601f168201915b50505050509050919050565b61065e610cca565b73ffffffffffffffffffffffffffffffffffffffff168573ffffffffffffffffffffffffffffffffffffffff1614806106a457506106a38561069e610cca565b610a15565b5b6106e3576040517f08c379a00000000000000000000000000000000000000000000000000000000081526004016106da906126d0565b60405180910390fd5b6106f08585858585610cd2565b5050505050565b6060815183511461073d576040517f08c379a000000000000000000000000000000000000000000000000000000000815260040161073490612762565b60405180910390fd5b6000835167ffffffffffffffff81111561075a57610759611e06565b5b6040519080825280602002602001820160405280156107885781602001602082028036833780820191505090505b50905060005b8451811015610805576107d58582815181106107ad576107ac612782565b5b60200260200101518583815181106107c8576107c7612782565b5b6020026020010151610401565b8282815181106107e8576107e7612782565b5b602002602001018181525050806107fe906127e0565b905061078e565b508091505092915050565b610818610ff3565b6108226000611071565b565b6000600360009054906101000a900473ffffffffffffffffffffffffffffffffffffffff16905090565b610856610ff3565b61085e610cca565b73ffffffffffffffffffffffffffffffffffffffff166108fc479081150290604051600060405180830381858888f193505050501580156108a3573d6000803e3d6000fd5b50565b6108b86108b1610cca565b8383611137565b5050565b60065481565b60076020528060005260406000206000915054906101000a900460ff1681565b600760006108ee610cca565b73ffffffffffffffffffffffffffffffffffffffff1673ffffffffffffffffffffffffffffffffffffffff16815260200190815260200160002060009054906101000a900460ff16610975576040517f08c379a000000000000000000000000000000000000000000000000000000000815260040161096c9061289a565b60405180910390fd5b6002600454036109ba576040517f08c379a00000000000000000000000000000000000000000000000000000000081526004016109b190612906565b60405180910390fd5b60026004819055506109e76109cd610cca565b6005546001604051806020016040528060008152506112a3565b6109f081611453565b600160056000828254610a039190612926565b92505081905550600160048190555050565b6000600160008473ffffffffffffffffffffffffffffffffffffffff1673ffffffffffffffffffffffffffffffffffffffff16815260200190815260200160002060008373ffffffffffffffffffffffffffffffffffffffff1673ffffffffffffffffffffffffffffffffffffffff16815260200190815260200160002060009054906101000a900460ff16905092915050565b600654341015610ab857600080fd5b600160076000610ac6610cca565b73ffffffffffffffffffffffffffffffffffffffff1673ffffffffffffffffffffffffffffffffffffffff16815260200190815260200160002060006101000a81548160ff021916908315150217905550565b610b21610cca565b73ffffffffffffffffffffffffffffffffffffffff168573ffffffffffffffffffffffffffffffffffffffff161480610b675750610b6685610b61610cca565b610a15565b5b610ba6576040517f08c379a0000000000000000000000000000000000000000000000000000000008152600401610b9d906126d0565b60405180910390fd5b610bb38585858585611479565b5050505050565b610bc2610ff3565b600073ffffffffffffffffffffffffffffffffffffffff168173ffffffffffffffffffffffffffffffffffffffff1603610c31576040517f08c379a0000000000000000000000000000000000000000000000000000000008152600401610c28906129ee565b60405180910390fd5b610c3a81611071565b50565b6000808273ffffffffffffffffffffffffffffffffffffffff163b119050919050565b60007f01ffc9a7000000000000000000000000000000000000000000000000000000007bffffffffffffffffffffffffffffffffffffffffffffffffffffffff1916827bffffffffffffffffffffffffffffffffffffffffffffffffffffffff1916149050919050565b600033905090565b8151835114610d16576040517f08c379a0000000000000000000000000000000000000000000000000000000008152600401610d0d90612a80565b60405180910390fd5b600073ffffffffffffffffffffffffffffffffffffffff168473ffffffffffffffffffffffffffffffffffffffff1603610d85576040517f08c379a0000000000000000000000000000000000000000000000000000000008152600401610d7c90612b12565b60405180910390fd5b6000610d8f610cca565b9050610d9f818787878787611714565b60005b8451811015610f50576000858281518110610dc057610dbf612782565b5b602002602001015190506000858381518110610ddf57610dde612782565b5b60200260200101519050600080600084815260200190815260200160002060008b73ffffffffffffffffffffffffffffffffffffffff1673ffffffffffffffffffffffffffffffffffffffff16815260200190815260200160002054905081811015610e80576040517f08c379a0000000000000000000000000000000000000000000000000000000008152600401610e7790612ba4565b60405180910390fd5b81810360008085815260200190815260200160002060008c73ffffffffffffffffffffffffffffffffffffffff1673ffffffffffffffffffffffffffffffffffffffff168152602001908152602001600020819055508160008085815260200190815260200160002060008b73ffffffffffffffffffffffffffffffffffffffff1673ffffffffffffffffffffffffffffffffffffffff1681526020019081526020016000206000828254610f359190612926565b9250508190555050505080610f49906127e0565b9050610da2565b508473ffffffffffffffffffffffffffffffffffffffff168673ffffffffffffffffffffffffffffffffffffffff168273ffffffffffffffffffffffffffffffffffffffff167f4a39dc06d4c0dbc64b70af90fd698a233a518aa5d07e595d983b8c0526c8f7fb8787604051610fc7929190612bc4565b60405180910390a4610fdd81878787878761171c565b610feb818787878787611724565b505050505050565b610ffb610cca565b73ffffffffffffffffffffffffffffffffffffffff16611019610824565b73ffffffffffffffffffffffffffffffffffffffff161461106f576040517f08c379a000000000000000000000000000000000000000000000000000000000815260040161106690612c47565b60405180910390fd5b565b6000600360009054906101000a900473ffffffffffffffffffffffffffffffffffffffff16905081600360006101000a81548173ffffffffffffffffffffffffffffffffffffffff021916908373ffffffffffffffffffffffffffffffffffffffff1602179055508173ffffffffffffffffffffffffffffffffffffffff168173ffffffffffffffffffffffffffffffffffffffff167f8be0079c531659141344cd1fd0a4f28419497f9722a3daafe3b4186f6b6457e060405160405180910390a35050565b8173ffffffffffffffffffffffffffffffffffffffff168373ffffffffffffffffffffffffffffffffffffffff16036111a5576040517f08c379a000000000000000000000000000000000000000000000000000000000815260040161119c90612cd9565b60405180910390fd5b80600160008573ffffffffffffffffffffffffffffffffffffffff1673ffffffffffffffffffffffffffffffffffffffff16815260200190815260200160002060008473ffffffffffffffffffffffffffffffffffffffff1673ffffffffffffffffffffffffffffffffffffffff16815260200190815260200160002060006101000a81548160ff0219169083151502179055508173ffffffffffffffffffffffffffffffffffffffff168373ffffffffffffffffffffffffffffffffffffffff167f17307eab39ab6107e8899845ad3d59bd9653f200f220920489ca2b5937696c31836040516112969190611cfe565b60405180910390a3505050565b600073ffffffffffffffffffffffffffffffffffffffff168473ffffffffffffffffffffffffffffffffffffffff1603611312576040517f08c379a000000000000000000000000000000000000000000000000000000000815260040161130990612d6b565b60405180910390fd5b600061131c610cca565b90506000611329856118fb565b90506000611336856118fb565b905061134783600089858589611714565b8460008088815260200190815260200160002060008973ffffffffffffffffffffffffffffffffffffffff1673ffffffffffffffffffffffffffffffffffffffff16815260200190815260200160002060008282546113a69190612926565b925050819055508673ffffffffffffffffffffffffffffffffffffffff16600073ffffffffffffffffffffffffffffffffffffffff168473ffffffffffffffffffffffffffffffffffffffff167fc3d58168c5ae7397731d063d5bbf3d657854427343f4c083240f7aacaa2d0f628989604051611424929190612d8b565b60405180910390a461143b8360008985858961171c565b61144a83600089898989611975565b50505050505050565b8060086000600554815260200190815260200160002090816114759190612f60565b5050565b600073ffffffffffffffffffffffffffffffffffffffff168473ffffffffffffffffffffffffffffffffffffffff16036114e8576040517f08c379a00000000000000000000000000000000000000000000000000000000081526004016114df90612b12565b60405180910390fd5b60006114f2610cca565b905060006114ff856118fb565b9050600061150c856118fb565b905061151c838989858589611714565b600080600088815260200190815260200160002060008a73ffffffffffffffffffffffffffffffffffffffff1673ffffffffffffffffffffffffffffffffffffffff168152602001908152602001600020549050858110156115b3576040517f08c379a00000000000000000000000000000000000000000000000000000000081526004016115aa90612ba4565b60405180910390fd5b85810360008089815260200190815260200160002060008b73ffffffffffffffffffffffffffffffffffffffff1673ffffffffffffffffffffffffffffffffffffffff168152602001908152602001600020819055508560008089815260200190815260200160002060008a73ffffffffffffffffffffffffffffffffffffffff1673ffffffffffffffffffffffffffffffffffffffff16815260200190815260200160002060008282546116689190612926565b925050819055508773ffffffffffffffffffffffffffffffffffffffff168973ffffffffffffffffffffffffffffffffffffffff168573ffffffffffffffffffffffffffffffffffffffff167fc3d58168c5ae7397731d063d5bbf3d657854427343f4c083240f7aacaa2d0f628a8a6040516116e5929190612d8b565b60405180910390a46116fb848a8a86868a61171c565b611709848a8a8a8a8a611975565b505050505050505050565b505050505050565b505050505050565b6117438473ffffffffffffffffffffffffffffffffffffffff16610c3d565b156118f3578373ffffffffffffffffffffffffffffffffffffffff1663bc197c8187878686866040518663ffffffff1660e01b8152600401611789959493929190613087565b6020604051808303816000875af19250505080156117c557506040513d601f19601f820116820180604052508101906117c29190613104565b60015b61186a576117d161313e565b806308c379a00361182d57506117e5613160565b806117f0575061182f565b806040517f08c379a00000000000000000000000000000000000000000000000000000000081526004016118249190611ddf565b60405180910390fd5b505b6040517f08c379a000000000000000000000000000000000000000000000000000000000815260040161186190613262565b60405180910390fd5b63bc197c8160e01b7bffffffffffffffffffffffffffffffffffffffffffffffffffffffff1916817bffffffffffffffffffffffffffffffffffffffffffffffffffffffff1916146118f1576040517f08c379a00000000000000000000000000000000000000000000000000000000081526004016118e8906132f4565b60405180910390fd5b505b505050505050565b60606000600167ffffffffffffffff81111561191a57611919611e06565b5b6040519080825280602002602001820160405280156119485781602001602082028036833780820191505090505b50905082816000815181106119605761195f612782565b5b60200260200101818152505080915050919050565b6119948473ffffffffffffffffffffffffffffffffffffffff16610c3d565b15611b44578373ffffffffffffffffffffffffffffffffffffffff1663f23a6e6187878686866040518663ffffffff1660e01b81526004016119da959493929190613314565b6020604051808303816000875af1925050508015611a1657506040513d601f19601f82011682018060405250810190611a139190613104565b60015b611abb57611a2261313e565b806308c379a003611a7e5750611a36613160565b80611a415750611a80565b806040517f08c379a0000000000000000000000000000000000000000000000000000000008152600401611a759190611ddf565b60405180910390fd5b505b6040517f08c379a0000000000000000000000000000000000000000000000000000000008152600401611ab290613262565b60405180910390fd5b63f23a6e6160e01b7bffffffffffffffffffffffffffffffffffffffffffffffffffffffff1916817bffffffffffffffffffffffffffffffffffffffffffffffffffffffff191614611b42576040517f08c379a0000000000000000000000000000000000000000000000000000000008152600401611b39906132f4565b60405180910390fd5b505b505050505050565b6000604051905090565b600080fd5b600080fd5b600073ffffffffffffffffffffffffffffffffffffffff82169050919050565b6000611b8b82611b60565b9050919050565b611b9b81611b80565b8114611ba657600080fd5b50565b600081359050611bb881611b92565b92915050565b6000819050919050565b611bd181611bbe565b8114611bdc57600080fd5b50565b600081359050611bee81611bc8565b92915050565b60008060408385031215611c0b57611c0a611b56565b5b6000611c1985828601611ba9565b9250506020611c2a85828601611bdf565b9150509250929050565b611c3d81611bbe565b82525050565b6000602082019050611c586000830184611c34565b92915050565b60007fffffffff0000000000000000000000000000000000000000000000000000000082169050919050565b611c9381611c5e565b8114611c9e57600080fd5b50565b600081359050611cb081611c8a565b92915050565b600060208284031215611ccc57611ccb611b56565b5b6000611cda84828501611ca1565b91505092915050565b60008115159050919050565b611cf881611ce3565b82525050565b6000602082019050611d136000830184611cef565b92915050565b600060208284031215611d2f57611d2e611b56565b5b6000611d3d84828501611bdf565b91505092915050565b600081519050919050565b600082825260208201905092915050565b60005b83811015611d80578082015181840152602081019050611d65565b83811115611d8f576000848401525b50505050565b6000601f19601f8301169050919050565b6000611db182611d46565b611dbb8185611d51565b9350611dcb818560208601611d62565b611dd481611d95565b840191505092915050565b60006020820190508181036000830152611df98184611da6565b905092915050565b600080fd5b7f4e487b7100000000000000000000000000000000000000000000000000000000600052604160045260246000fd5b611e3e82611d95565b810181811067ffffffffffffffff82111715611e5d57611e5c611e06565b5b80604052505050565b6000611e70611b4c565b9050611e7c8282611e35565b919050565b600067ffffffffffffffff821115611e9c57611e9b611e06565b5b602082029050602081019050919050565b600080fd5b6000611ec5611ec084611e81565b611e66565b90508083825260208201905060208402830185811115611ee857611ee7611ead565b5b835b81811015611f115780611efd8882611bdf565b845260208401935050602081019050611eea565b5050509392505050565b600082601f830112611f3057611f2f611e01565b5b8135611f40848260208601611eb2565b91505092915050565b600080fd5b600067ffffffffffffffff821115611f6957611f68611e06565b5b611f7282611d95565b9050602081019050919050565b82818337600083830152505050565b6000611fa1611f9c84611f4e565b611e66565b905082815260208101848484011115611fbd57611fbc611f49565b5b611fc8848285611f7f565b509392505050565b600082601f830112611fe557611fe4611e01565b5b8135611ff5848260208601611f8e565b91505092915050565b600080600080600060a0868803121561201a57612019611b56565b5b600061202888828901611ba9565b955050602061203988828901611ba9565b945050604086013567ffffffffffffffff81111561205a57612059611b5b565b5b61206688828901611f1b565b935050606086013567ffffffffffffffff81111561208757612086611b5b565b5b61209388828901611f1b565b925050608086013567ffffffffffffffff8111156120b4576120b3611b5b565b5b6120c088828901611fd0565b9150509295509295909350565b600067ffffffffffffffff8211156120e8576120e7611e06565b5b602082029050602081019050919050565b600061210c612107846120cd565b611e66565b9050808382526020820190506020840283018581111561212f5761212e611ead565b5b835b8181101561215857806121448882611ba9565b845260208401935050602081019050612131565b5050509392505050565b600082601f83011261217757612176611e01565b5b81356121878482602086016120f9565b91505092915050565b600080604083850312156121a7576121a6611b56565b5b600083013567ffffffffffffffff8111156121c5576121c4611b5b565b5b6121d185828601612162565b925050602083013567ffffffffffffffff8111156121f2576121f1611b5b565b5b6121fe85828601611f1b565b9150509250929050565b600081519050919050565b600082825260208201905092915050565b6000819050602082019050919050565b61223d81611bbe565b82525050565b600061224f8383612234565b60208301905092915050565b6000602082019050919050565b600061227382612208565b61227d8185612213565b935061228883612224565b8060005b838110156122b95781516122a08882612243565b97506122ab8361225b565b92505060018101905061228c565b5085935050505092915050565b600060208201905081810360008301526122e08184612268565b905092915050565b6122f181611b80565b82525050565b600060208201905061230c60008301846122e8565b92915050565b61231b81611ce3565b811461232657600080fd5b50565b60008135905061233881612312565b92915050565b6000806040838503121561235557612354611b56565b5b600061236385828601611ba9565b925050602061237485828601612329565b9150509250929050565b60006020828403121561239457612393611b56565b5b60006123a284828501611ba9565b91505092915050565b600067ffffffffffffffff8211156123c6576123c5611e06565b5b6123cf82611d95565b9050602081019050919050565b60006123ef6123ea846123ab565b611e66565b90508281526020810184848401111561240b5761240a611f49565b5b612416848285611f7f565b509392505050565b600082601f83011261243357612432611e01565b5b81356124438482602086016123dc565b91505092915050565b60006020828403121561246257612461611b56565b5b600082013567ffffffffffffffff8111156124805761247f611b5b565b5b61248c8482850161241e565b91505092915050565b600080604083850312156124ac576124ab611b56565b5b60006124ba85828601611ba9565b92505060206124cb85828601611ba9565b9150509250929050565b600080600080600060a086880312156124f1576124f0611b56565b5b60006124ff88828901611ba9565b955050602061251088828901611ba9565b945050604061252188828901611bdf565b935050606061253288828901611bdf565b925050608086013567ffffffffffffffff81111561255357612552611b5b565b5b61255f88828901611fd0565b9150509295509295909350565b7f455243313135353a2061646472657373207a65726f206973206e6f742061207660008201527f616c6964206f776e657200000000000000000000000000000000000000000000602082015250565b60006125c8602a83611d51565b91506125d38261256c565b604082019050919050565b600060208201905081810360008301526125f7816125bb565b9050919050565b7f4e487b7100000000000000000000000000000000000000000000000000000000600052602260045260246000fd5b6000600282049050600182168061264557607f821691505b602082108103612658576126576125fe565b5b50919050565b7f455243313135353a2063616c6c6572206973206e6f7420746f6b656e206f776e60008201527f6572206e6f7220617070726f7665640000000000000000000000000000000000602082015250565b60006126ba602f83611d51565b91506126c58261265e565b604082019050919050565b600060208201905081810360008301526126e9816126ad565b9050919050565b7f455243313135353a206163636f756e747320616e6420696473206c656e67746860008201527f206d69736d617463680000000000000000000000000000000000000000000000602082015250565b600061274c602983611d51565b9150612757826126f0565b604082019050919050565b6000602082019050818103600083015261277b8161273f565b9050919050565b7f4e487b7100000000000000000000000000000000000000000000000000000000600052603260045260246000fd5b7f4e487b7100000000000000000000000000000000000000000000000000000000600052601160045260246000fd5b60006127eb82611bbe565b91507fffffffffffffffffffffffffffffffffffffffffffffffffffffffffffffffff820361281d5761281c6127b1565b5b600182019050919050565b7f596f75206861766520746f20626520617070726f76656420696e206f7264657260008201527f20746f206d696e7420746f6b656e730000000000000000000000000000000000602082015250565b6000612884602f83611d51565b915061288f82612828565b604082019050919050565b600060208201905081810360008301526128b381612877565b9050919050565b7f5265656e7472616e637947756172643a207265656e7472616e742063616c6c00600082015250565b60006128f0601f83611d51565b91506128fb826128ba565b602082019050919050565b6000602082019050818103600083015261291f816128e3565b9050919050565b600061293182611bbe565b915061293c83611bbe565b9250827fffffffffffffffffffffffffffffffffffffffffffffffffffffffffffffffff03821115612971576129706127b1565b5b828201905092915050565b7f4f776e61626c653a206e6577206f776e657220697320746865207a65726f206160008201527f6464726573730000000000000000000000000000000000000000000000000000602082015250565b60006129d8602683611d51565b91506129e38261297c565b604082019050919050565b60006020820190508181036000830152612a07816129cb565b9050919050565b7f455243313135353a2069647320616e6420616d6f756e7473206c656e6774682060008201527f6d69736d61746368000000000000000000000000000000000000000000000000602082015250565b6000612a6a602883611d51565b9150612a7582612a0e565b604082019050919050565b60006020820190508181036000830152612a9981612a5d565b9050919050565b7f455243313135353a207472616e7366657220746f20746865207a65726f20616460008201527f6472657373000000000000000000000000000000000000000000000000000000602082015250565b6000612afc602583611d51565b9150612b0782612aa0565b604082019050919050565b60006020820190508181036000830152612b2b81612aef565b9050919050565b7f455243313135353a20696e73756666696369656e742062616c616e636520666f60008201527f72207472616e7366657200000000000000000000000000000000000000000000602082015250565b6000612b8e602a83611d51565b9150612b9982612b32565b604082019050919050565b60006020820190508181036000830152612bbd81612b81565b9050919050565b60006040820190508181036000830152612bde8185612268565b90508181036020830152612bf28184612268565b90509392505050565b7f4f776e61626c653a2063616c6c6572206973206e6f7420746865206f776e6572600082015250565b6000612c31602083611d51565b9150612c3c82612bfb565b602082019050919050565b60006020820190508181036000830152612c6081612c24565b9050919050565b7f455243313135353a2073657474696e6720617070726f76616c2073746174757360008201527f20666f722073656c660000000000000000000000000000000000000000000000602082015250565b6000612cc3602983611d51565b9150612cce82612c67565b604082019050919050565b60006020820190508181036000830152612cf281612cb6565b9050919050565b7f455243313135353a206d696e7420746f20746865207a65726f2061646472657360008201527f7300000000000000000000000000000000000000000000000000000000000000602082015250565b6000612d55602183611d51565b9150612d6082612cf9565b604082019050919050565b60006020820190508181036000830152612d8481612d48565b9050919050565b6000604082019050612da06000830185611c34565b612dad6020830184611c34565b9392505050565b60008190508160005260206000209050919050565b60006020601f8301049050919050565b600082821b905092915050565b600060088302612e167fffffffffffffffffffffffffffffffffffffffffffffffffffffffffffffffff82612dd9565b612e208683612dd9565b95508019841693508086168417925050509392505050565b6000819050919050565b6000612e5d612e58612e5384611bbe565b612e38565b611bbe565b9050919050565b6000819050919050565b612e7783612e42565b612e8b612e8382612e64565b848454612de6565b825550505050565b600090565b612ea0612e93565b612eab818484612e6e565b505050565b5b81811015612ecf57612ec4600082612e98565b600181019050612eb1565b5050565b601f821115612f1457612ee581612db4565b612eee84612dc9565b81016020851015612efd578190505b612f11612f0985612dc9565b830182612eb0565b50505b505050565b600082821c905092915050565b6000612f3760001984600802612f19565b1980831691505092915050565b6000612f508383612f26565b9150826002028217905092915050565b612f6982611d46565b67ffffffffffffffff811115612f8257612f81611e06565b5b612f8c825461262d565b612f97828285612ed3565b600060209050601f831160018114612fca5760008415612fb8578287015190505b612fc28582612f44565b86555061302a565b601f198416612fd886612db4565b60005b8281101561300057848901518255600182019150602085019450602081019050612fdb565b8683101561301d5784890151613019601f891682612f26565b8355505b6001600288020188555050505b505050505050565b600081519050919050565b600082825260208201905092915050565b600061305982613032565b613063818561303d565b9350613073818560208601611d62565b61307c81611d95565b840191505092915050565b600060a08201905061309c60008301886122e8565b6130a960208301876122e8565b81810360408301526130bb8186612268565b905081810360608301526130cf8185612268565b905081810360808301526130e3818461304e565b90509695505050505050565b6000815190506130fe81611c8a565b92915050565b60006020828403121561311a57613119611b56565b5b6000613128848285016130ef565b91505092915050565b60008160e01c9050919050565b600060033d111561315d5760046000803e61315a600051613131565b90505b90565b600060443d106131ed57613172611b4c565b60043d036004823e80513d602482011167ffffffffffffffff8211171561319a5750506131ed565b808201805167ffffffffffffffff8111156131b857505050506131ed565b80602083010160043d0385018111156131d55750505050506131ed565b6131e482602001850186611e35565b82955050505050505b90565b7f455243313135353a207472616e7366657220746f206e6f6e204552433131353560008201527f526563656976657220696d706c656d656e746572000000000000000000000000602082015250565b600061324c603483611d51565b9150613257826131f0565b604082019050919050565b6000602082019050818103600083015261327b8161323f565b9050919050565b7f455243313135353a204552433131353552656365697665722072656a6563746560008201527f6420746f6b656e73000000000000000000000000000000000000000000000000602082015250565b60006132de602883611d51565b91506132e982613282565b604082019050919050565b6000602082019050818103600083015261330d816132d1565b9050919050565b600060a08201905061332960008301886122e8565b61333660208301876122e8565b6133436040830186611c34565b6133506060830185611c34565b8181036080830152613362818461304e565b9050969550505050505056fea26469706673582212205a4d1aabc26f2f8f8faa12d152356815eb85364610dc83e7dd4d261f3ddcea8564736f6c634300080f0033",
  "immutableReferences": {},
  "source": "pragma solidity ^0.8.1;\n// FeeForMinting\n// Only Approved Users can mint\n// metadata is passed as an argument for every mint\n// SPDX-License-Identifier: MIT\n\nimport \"@openzeppelin/contracts/token/ERC1155/ERC1155.sol\";\nimport \"@openzeppelin/contracts/access/Ownable.sol\";\nimport \"@openzeppelin/contracts/security/ReentrancyGuard.sol\";\n\ncontract nft_contract is ERC1155, Ownable, ReentrancyGuard {\n\n    uint256 public Token_Id = 0;\n    uint256 public feeForAbilityToMint = 0.1 ether;\n    mapping(address => bool) public is_User_approved_to_mint; \n    mapping(uint256 => string) _uris;\n\n    modifier approved_to_mint() {\n        require(is_User_approved_to_mint[_msgSender()], \"You have to be approved in order to mint tokens\");\n        _;\n    }\n    constructor(string memory initial_uri) ERC1155(initial_uri) {\n        _mint(_msgSender(), Token_Id, 1, \"\");\n        Token_Id +=1;\n        is_User_approved_to_mint[_msgSender()] = true;\n    }\n\n  function _setURI(string memory newuri) internal override {\n      _uris[Token_Id] = newuri;\n    }\n    \n\n    function mint(string memory newuri) public approved_to_mint nonReentrant{\n        _mint(_msgSender(), Token_Id, 1, \"\");\n        _setURI(newuri);\n        Token_Id +=1;\n\n    }\n    function approve_user_to_mint() public payable {\n        require(msg.value >= feeForAbilityToMint);\n        is_User_approved_to_mint[_msgSender()] =true;\n    }\n    function uri(uint256 id) public view override returns (string memory) {\n        return _uris[id];\n    }\n    \n    function withdraw_minting_fees() public onlyOwner {\n        payable(_msgSender()).transfer(address(this).balance);\n    }\n\n    receive() external payable {\n        \n    }\n}",
  "sourcePath": "/Users/pawelpiwowarski/youtube_tutorial/contracts/nft_contract.sol",
  "compiler": {
    "name": "solc",
    "version": "0.8.15+commit.e14f2714.Emscripten.clang"
  },
  "schemaVersion": "3.4.8",
  "updatedAt": "2022-07-15T12:09:27.659Z",
  "devdoc": {
    "kind": "dev",
    "methods": {
      "balanceOf(address,uint256)": {
        "details": "See {IERC1155-balanceOf}. Requirements: - `account` cannot be the zero address."
      },
      "balanceOfBatch(address[],uint256[])": {
        "details": "See {IERC1155-balanceOfBatch}. Requirements: - `accounts` and `ids` must have the same length."
      },
      "isApprovedForAll(address,address)": {
        "details": "See {IERC1155-isApprovedForAll}."
      },
      "owner()": {
        "details": "Returns the address of the current owner."
      },
      "renounceOwnership()": {
        "details": "Leaves the contract without owner. It will not be possible to call `onlyOwner` functions anymore. Can only be called by the current owner. NOTE: Renouncing ownership will leave the contract without an owner, thereby removing any functionality that is only available to the owner."
      },
      "safeBatchTransferFrom(address,address,uint256[],uint256[],bytes)": {
        "details": "See {IERC1155-safeBatchTransferFrom}."
      },
      "safeTransferFrom(address,address,uint256,uint256,bytes)": {
        "details": "See {IERC1155-safeTransferFrom}."
      },
      "setApprovalForAll(address,bool)": {
        "details": "See {IERC1155-setApprovalForAll}."
      },
      "supportsInterface(bytes4)": {
        "details": "See {IERC165-supportsInterface}."
      },
      "transferOwnership(address)": {
        "details": "Transfers ownership of the contract to a new account (`newOwner`). Can only be called by the current owner."
      }
    },
    "version": 1
  },
  "userdoc": {
    "kind": "user",
    "methods": {},
    "version": 1
  }
}