{
  "contractName": "nft_contract",
  "abi": [
    {
      "inputs": [
        {
          "internalType": "string",
          "name": "zero_id_uri",
          "type": "string"
        }
      ],
      "stateMutability": "nonpayable",
      "type": "constructor"
    },
    {
      "anonymous": false,
      "inputs": [
        {
          "indexed": true,
          "internalType": "address",
          "name": "account",
          "type": "address"
        },
        {
          "indexed": true,
          "internalType": "address",
          "name": "operator",
          "type": "address"
        },
        {
          "indexed": false,
          "internalType": "bool",
          "name": "approved",
          "type": "bool"
        }
      ],
      "name": "ApprovalForAll",
      "type": "event"
    },
    {
      "anonymous": false,
      "inputs": [
        {
          "indexed": true,
          "internalType": "address",
          "name": "previousOwner",
          "type": "address"
        },
        {
          "indexed": true,
          "internalType": "address",
          "name": "newOwner",
          "type": "address"
        }
      ],
      "name": "OwnershipTransferred",
      "type": "event"
    },
    {
      "anonymous": false,
      "inputs": [
        {
          "indexed": true,
          "internalType": "address",
          "name": "operator",
          "type": "address"
        },
        {
          "indexed": true,
          "internalType": "address",
          "name": "from",
          "type": "address"
        },
        {
          "indexed": true,
          "internalType": "address",
          "name": "to",
          "type": "address"
        },
        {
          "indexed": false,
          "internalType": "uint256[]",
          "name": "ids",
          "type": "uint256[]"
        },
        {
          "indexed": false,
          "internalType": "uint256[]",
          "name": "values",
          "type": "uint256[]"
        }
      ],
      "name": "TransferBatch",
      "type": "event"
    },
    {
      "anonymous": false,
      "inputs": [
        {
          "indexed": true,
          "internalType": "address",
          "name": "operator",
          "type": "address"
        },
        {
          "indexed": true,
          "internalType": "address",
          "name": "from",
          "type": "address"
        },
        {
          "indexed": true,
          "internalType": "address",
          "name": "to",
          "type": "address"
        },
        {
          "indexed": false,
          "internalType": "uint256",
          "name": "id",
          "type": "uint256"
        },
        {
          "indexed": false,
          "internalType": "uint256",
          "name": "value",
          "type": "uint256"
        }
      ],
      "name": "TransferSingle",
      "type": "event"
    },
    {
      "anonymous": false,
      "inputs": [
        {
          "indexed": false,
          "internalType": "string",
          "name": "value",
          "type": "string"
        },
        {
          "indexed": true,
          "internalType": "uint256",
          "name": "id",
          "type": "uint256"
        }
      ],
      "name": "URI",
      "type": "event"
    },
    {
      "inputs": [
        {
          "internalType": "address",
          "name": "",
          "type": "address"
        }
      ],
      "name": "Approved_users_to_mint",
      "outputs": [
        {
          "internalType": "bool",
          "name": "",
          "type": "bool"
        }
      ],
      "stateMutability": "view",
      "type": "function"
    },
    {
      "inputs": [
        {
          "internalType": "uint256",
          "name": "",
          "type": "uint256"
        }
      ],
      "name": "_uris",
      "outputs": [
        {
          "internalType": "string",
          "name": "",
          "type": "string"
        }
      ],
      "stateMutability": "view",
      "type": "function"
    },
    {
      "inputs": [
        {
          "internalType": "address",
          "name": "account",
          "type": "address"
        },
        {
          "internalType": "uint256",
          "name": "id",
          "type": "uint256"
        }
      ],
      "name": "balanceOf",
      "outputs": [
        {
          "internalType": "uint256",
          "name": "",
          "type": "uint256"
        }
      ],
      "stateMutability": "view",
      "type": "function"
    },
    {
      "inputs": [
        {
          "internalType": "address[]",
          "name": "accounts",
          "type": "address[]"
        },
        {
          "internalType": "uint256[]",
          "name": "ids",
          "type": "uint256[]"
        }
      ],
      "name": "balanceOfBatch",
      "outputs": [
        {
          "internalType": "uint256[]",
          "name": "",
          "type": "uint256[]"
        }
      ],
      "stateMutability": "view",
      "type": "function"
    },
    {
      "inputs": [
        {
          "internalType": "address",
          "name": "account",
          "type": "address"
        },
        {
          "internalType": "address",
          "name": "operator",
          "type": "address"
        }
      ],
      "name": "isApprovedForAll",
      "outputs": [
        {
          "internalType": "bool",
          "name": "",
          "type": "bool"
        }
      ],
      "stateMutability": "view",
      "type": "function"
    },
    {
      "inputs": [],
      "name": "owner",
      "outputs": [
        {
          "internalType": "address",
          "name": "",
          "type": "address"
        }
      ],
      "stateMutability": "view",
      "type": "function"
    },
    {
      "inputs": [],
      "name": "renounceOwnership",
      "outputs": [],
      "stateMutability": "nonpayable",
      "type": "function"
    },
    {
      "inputs": [
        {
          "internalType": "address",
          "name": "from",
          "type": "address"
        },
        {
          "internalType": "address",
          "name": "to",
          "type": "address"
        },
        {
          "internalType": "uint256[]",
          "name": "ids",
          "type": "uint256[]"
        },
        {
          "internalType": "uint256[]",
          "name": "amounts",
          "type": "uint256[]"
        },
        {
          "internalType": "bytes",
          "name": "data",
          "type": "bytes"
        }
      ],
      "name": "safeBatchTransferFrom",
      "outputs": [],
      "stateMutability": "nonpayable",
      "type": "function"
    },
    {
      "inputs": [
        {
          "internalType": "address",
          "name": "from",
          "type": "address"
        },
        {
          "internalType": "address",
          "name": "to",
          "type": "address"
        },
        {
          "internalType": "uint256",
          "name": "id",
          "type": "uint256"
        },
        {
          "internalType": "uint256",
          "name": "amount",
          "type": "uint256"
        },
        {
          "internalType": "bytes",
          "name": "data",
          "type": "bytes"
        }
      ],
      "name": "safeTransferFrom",
      "outputs": [],
      "stateMutability": "nonpayable",
      "type": "function"
    },
    {
      "inputs": [
        {
          "internalType": "address",
          "name": "operator",
          "type": "address"
        },
        {
          "internalType": "bool",
          "name": "approved",
          "type": "bool"
        }
      ],
      "name": "setApprovalForAll",
      "outputs": [],
      "stateMutability": "nonpayable",
      "type": "function"
    },
    {
      "inputs": [
        {
          "internalType": "bytes4",
          "name": "interfaceId",
          "type": "bytes4"
        }
      ],
      "name": "supportsInterface",
      "outputs": [
        {
          "internalType": "bool",
          "name": "",
          "type": "bool"
        }
      ],
      "stateMutability": "view",
      "type": "function"
    },
    {
      "inputs": [
        {
          "internalType": "address",
          "name": "newOwner",
          "type": "address"
        }
      ],
      "name": "transferOwnership",
      "outputs": [],
      "stateMutability": "nonpayable",
      "type": "function"
    },
    {
      "stateMutability": "payable",
      "type": "receive"
    },
    {
      "inputs": [
        {
          "internalType": "uint256",
          "name": "id",
          "type": "uint256"
        }
      ],
      "name": "uri",
      "outputs": [
        {
          "internalType": "string",
          "name": "",
          "type": "string"
        }
      ],
      "stateMutability": "view",
      "type": "function"
    },
    {
      "inputs": [
        {
          "internalType": "string",
          "name": "newuri",
          "type": "string"
        }
      ],
      "name": "mint",
      "outputs": [],
      "stateMutability": "nonpayable",
      "type": "function"
    },
    {
      "inputs": [],
      "name": "approve_user_to_mint",
      "outputs": [],
      "stateMutability": "payable",
      "type": "function"
    },
    {
      "inputs": [],
      "name": "withdraw_minting_fees",
      "outputs": [],
      "stateMutability": "payable",
      "type": "function"
    }
  ],
  "bytecode": "0x6080604052600060055567016345785d8a00006006553480156200002257600080fd5b5060405162003d7a38038062003d7a8339818101604052810190620000489190620003dc565b806200005a816200014960201b60201c565b506200007b6200006f6200017160201b60201c565b6200017960201b60201c565b60016004819055506005547f6bb7ff708619ba0610cba295a58592e0451dee2622938c8755667688daf3529b82604051620000b791906200048a565b60405180910390a2600160056000828254620000d49190620004e7565b92505081905550600160076000620000f16200017160201b60201c565b73ffffffffffffffffffffffffffffffffffffffff1673ffffffffffffffffffffffffffffffffffffffff16815260200190815260200160002060006101000a81548160ff0219169083151502179055505062000861565b8060086000600554815260200190815260200160002090816200016d91906200077a565b5050565b600033905090565b6000600360009054906101000a900473ffffffffffffffffffffffffffffffffffffffff16905081600360006101000a81548173ffffffffffffffffffffffffffffffffffffffff021916908373ffffffffffffffffffffffffffffffffffffffff1602179055508173ffffffffffffffffffffffffffffffffffffffff168173ffffffffffffffffffffffffffffffffffffffff167f8be0079c531659141344cd1fd0a4f28419497f9722a3daafe3b4186f6b6457e060405160405180910390a35050565b6000604051905090565b600080fd5b600080fd5b600080fd5b600080fd5b6000601f19601f8301169050919050565b7f4e487b7100000000000000000000000000000000000000000000000000000000600052604160045260246000fd5b620002a8826200025d565b810181811067ffffffffffffffff82111715620002ca57620002c96200026e565b5b80604052505050565b6000620002df6200023f565b9050620002ed82826200029d565b919050565b600067ffffffffffffffff82111562000310576200030f6200026e565b5b6200031b826200025d565b9050602081019050919050565b60005b83811015620003485780820151818401526020810190506200032b565b8381111562000358576000848401525b50505050565b6000620003756200036f84620002f2565b620002d3565b90508281526020810184848401111562000394576200039362000258565b5b620003a184828562000328565b509392505050565b600082601f830112620003c157620003c062000253565b5b8151620003d38482602086016200035e565b91505092915050565b600060208284031215620003f557620003f462000249565b5b600082015167ffffffffffffffff8111156200041657620004156200024e565b5b6200042484828501620003a9565b91505092915050565b600081519050919050565b600082825260208201905092915050565b600062000456826200042d565b62000462818562000438565b93506200047481856020860162000328565b6200047f816200025d565b840191505092915050565b60006020820190508181036000830152620004a6818462000449565b905092915050565b6000819050919050565b7f4e487b7100000000000000000000000000000000000000000000000000000000600052601160045260246000fd5b6000620004f482620004ae565b91506200050183620004ae565b9250827fffffffffffffffffffffffffffffffffffffffffffffffffffffffffffffffff03821115620005395762000538620004b8565b5b828201905092915050565b7f4e487b7100000000000000000000000000000000000000000000000000000000600052602260045260246000fd5b600060028204905060018216806200058c57607f821691505b602082108103620005a257620005a162000544565b5b50919050565b60008190508160005260206000209050919050565b60006020601f8301049050919050565b600082821b905092915050565b6000600883026200060c7fffffffffffffffffffffffffffffffffffffffffffffffffffffffffffffffff82620005cd565b620006188683620005cd565b95508019841693508086168417925050509392505050565b6000819050919050565b60006200065b620006556200064f84620004ae565b62000630565b620004ae565b9050919050565b6000819050919050565b62000677836200063a565b6200068f620006868262000662565b848454620005da565b825550505050565b600090565b620006a662000697565b620006b38184846200066c565b505050565b5b81811015620006db57620006cf6000826200069c565b600181019050620006b9565b5050565b601f8211156200072a57620006f481620005a8565b620006ff84620005bd565b810160208510156200070f578190505b620007276200071e85620005bd565b830182620006b8565b50505b505050565b600082821c905092915050565b60006200074f600019846008026200072f565b1980831691505092915050565b60006200076a83836200073c565b9150826002028217905092915050565b62000785826200042d565b67ffffffffffffffff811115620007a157620007a06200026e565b5b620007ad825462000573565b620007ba828285620006df565b600060209050601f831160018114620007f25760008415620007dd578287015190505b620007e985826200075c565b86555062000859565b601f1984166200080286620005a8565b60005b828110156200082c5784890151825560018201915060208501945060208101905062000805565b868310156200084c578489015162000848601f8916826200073c565b8355505b6001600288020188555050505b505050505050565b61350980620008716000396000f3fe6080604052600436106100f65760003560e01c80638da5cb5b1161008a578063e985e9c511610059578063e985e9c514610337578063eb1786a614610374578063f242432a1461037e578063f2fde38b146103a7576100fd565b80638da5cb5b146102b05780638dcc0c5d146102db578063a22cb465146102e5578063d85d3d271461030e576100fd565b80632eb2c2d6116100c65780632eb2c2d6146101f657806330a32c301461021f5780634e1273f41461025c578063715018a614610299576100fd565b8062fdd58e1461010257806301ffc9a71461013f5780630e89341c1461017c5780631233ce8d146101b9576100fd565b366100fd57005b600080fd5b34801561010e57600080fd5b5061012960048036038101906101249190611cc7565b6103d0565b6040516101369190611d16565b60405180910390f35b34801561014b57600080fd5b5061016660048036038101906101619190611d89565b610498565b6040516101739190611dd1565b60405180910390f35b34801561018857600080fd5b506101a3600480360381019061019e9190611dec565b61057a565b6040516101b09190611eb2565b60405180910390f35b3480156101c557600080fd5b506101e060048036038101906101db9190611dec565b61061f565b6040516101ed9190611eb2565b60405180910390f35b34801561020257600080fd5b5061021d600480360381019061021891906120d1565b6106bf565b005b34801561022b57600080fd5b50610246600480360381019061024191906121a0565b610760565b6040516102539190611dd1565b60405180910390f35b34801561026857600080fd5b50610283600480360381019061027e9190612290565b610780565b60405161029091906123c6565b60405180910390f35b3480156102a557600080fd5b506102ae610899565b005b3480156102bc57600080fd5b506102c56108ad565b6040516102d291906123f7565b60405180910390f35b6102e36108d7565b005b3480156102f157600080fd5b5061030c6004803603810190610307919061243e565b61092f565b005b34801561031a57600080fd5b506103356004803603810190610330919061251f565b610945565b005b34801561034357600080fd5b5061035e60048036038101906103599190612568565b610ab2565b60405161036b9190611dd1565b60405180910390f35b61037c610b46565b005b34801561038a57600080fd5b506103a560048036038101906103a091906125a8565b610bec565b005b3480156103b357600080fd5b506103ce60048036038101906103c991906121a0565b610c8d565b005b60008073ffffffffffffffffffffffffffffffffffffffff168373ffffffffffffffffffffffffffffffffffffffff1603610440576040517f08c379a0000000000000000000000000000000000000000000000000000000008152600401610437906126b1565b60405180910390fd5b60008083815260200190815260200160002060008473ffffffffffffffffffffffffffffffffffffffff1673ffffffffffffffffffffffffffffffffffffffff16815260200190815260200160002054905092915050565b60007fd9b67a26000000000000000000000000000000000000000000000000000000007bffffffffffffffffffffffffffffffffffffffffffffffffffffffff1916827bffffffffffffffffffffffffffffffffffffffffffffffffffffffff1916148061056357507f0e89341c000000000000000000000000000000000000000000000000000000007bffffffffffffffffffffffffffffffffffffffffffffffffffffffff1916827bffffffffffffffffffffffffffffffffffffffffffffffffffffffff1916145b80610573575061057282610d10565b5b9050919050565b606060086000838152602001908152602001600020805461059a90612700565b80601f01602080910402602001604051908101604052809291908181526020018280546105c690612700565b80156106135780601f106105e857610100808354040283529160200191610613565b820191906000526020600020905b8154815290600101906020018083116105f657829003601f168201915b50505050509050919050565b6008602052806000526040600020600091509050805461063e90612700565b80601f016020809104026020016040519081016040528092919081815260200182805461066a90612700565b80156106b75780601f1061068c576101008083540402835291602001916106b7565b820191906000526020600020905b81548152906001019060200180831161069a57829003601f168201915b505050505081565b6106c7610d7a565b73ffffffffffffffffffffffffffffffffffffffff168573ffffffffffffffffffffffffffffffffffffffff16148061070d575061070c85610707610d7a565b610ab2565b5b61074c576040517f08c379a0000000000000000000000000000000000000000000000000000000008152600401610743906127a3565b60405180910390fd5b6107598585858585610d82565b5050505050565b60076020528060005260406000206000915054906101000a900460ff1681565b606081518351146107c6576040517f08c379a00000000000000000000000000000000000000000000000000000000081526004016107bd90612835565b60405180910390fd5b6000835167ffffffffffffffff8111156107e3576107e2611ed9565b5b6040519080825280602002602001820160405280156108115781602001602082028036833780820191505090505b50905060005b845181101561088e5761085e85828151811061083657610835612855565b5b602002602001015185838151811061085157610850612855565b5b60200260200101516103d0565b82828151811061087157610870612855565b5b60200260200101818152505080610887906128b3565b9050610817565b508091505092915050565b6108a16110a3565b6108ab6000611121565b565b6000600360009054906101000a900473ffffffffffffffffffffffffffffffffffffffff16905090565b6108df6110a3565b6108e7610d7a565b73ffffffffffffffffffffffffffffffffffffffff166108fc479081150290604051600060405180830381858888f1935050505015801561092c573d6000803e3d6000fd5b50565b61094161093a610d7a565b83836111e7565b5050565b60026004540361098a576040517f08c379a000000000000000000000000000000000000000000000000000000000815260040161098190612947565b60405180910390fd5b60026004819055506007600061099e610d7a565b73ffffffffffffffffffffffffffffffffffffffff1673ffffffffffffffffffffffffffffffffffffffff16815260200190815260200160002060009054906101000a900460ff16610a25576040517f08c379a0000000000000000000000000000000000000000000000000000000008152600401610a1c906129d9565b60405180910390fd5b610a4a610a30610d7a565b600554600160405180602001604052806000815250611353565b610a5381611503565b6005547f6bb7ff708619ba0610cba295a58592e0451dee2622938c8755667688daf3529b82604051610a859190611eb2565b60405180910390a2600160056000828254610aa091906129f9565b92505081905550600160048190555050565b6000600160008473ffffffffffffffffffffffffffffffffffffffff1673ffffffffffffffffffffffffffffffffffffffff16815260200190815260200160002060008373ffffffffffffffffffffffffffffffffffffffff1673ffffffffffffffffffffffffffffffffffffffff16815260200190815260200160002060009054906101000a900460ff16905092915050565b600654341015610b8b576040517f08c379a0000000000000000000000000000000000000000000000000000000008152600401610b8290612ac1565b60405180910390fd5b600160076000610b99610d7a565b73ffffffffffffffffffffffffffffffffffffffff1673ffffffffffffffffffffffffffffffffffffffff16815260200190815260200160002060006101000a81548160ff021916908315150217905550565b610bf4610d7a565b73ffffffffffffffffffffffffffffffffffffffff168573ffffffffffffffffffffffffffffffffffffffff161480610c3a5750610c3985610c34610d7a565b610ab2565b5b610c79576040517f08c379a0000000000000000000000000000000000000000000000000000000008152600401610c70906127a3565b60405180910390fd5b610c868585858585611529565b5050505050565b610c956110a3565b600073ffffffffffffffffffffffffffffffffffffffff168173ffffffffffffffffffffffffffffffffffffffff1603610d04576040517f08c379a0000000000000000000000000000000000000000000000000000000008152600401610cfb90612b53565b60405180910390fd5b610d0d81611121565b50565b60007f01ffc9a7000000000000000000000000000000000000000000000000000000007bffffffffffffffffffffffffffffffffffffffffffffffffffffffff1916827bffffffffffffffffffffffffffffffffffffffffffffffffffffffff1916149050919050565b600033905090565b8151835114610dc6576040517f08c379a0000000000000000000000000000000000000000000000000000000008152600401610dbd90612be5565b60405180910390fd5b600073ffffffffffffffffffffffffffffffffffffffff168473ffffffffffffffffffffffffffffffffffffffff1603610e35576040517f08c379a0000000000000000000000000000000000000000000000000000000008152600401610e2c90612c77565b60405180910390fd5b6000610e3f610d7a565b9050610e4f8187878787876117c4565b60005b8451811015611000576000858281518110610e7057610e6f612855565b5b602002602001015190506000858381518110610e8f57610e8e612855565b5b60200260200101519050600080600084815260200190815260200160002060008b73ffffffffffffffffffffffffffffffffffffffff1673ffffffffffffffffffffffffffffffffffffffff16815260200190815260200160002054905081811015610f30576040517f08c379a0000000000000000000000000000000000000000000000000000000008152600401610f2790612d09565b60405180910390fd5b81810360008085815260200190815260200160002060008c73ffffffffffffffffffffffffffffffffffffffff1673ffffffffffffffffffffffffffffffffffffffff168152602001908152602001600020819055508160008085815260200190815260200160002060008b73ffffffffffffffffffffffffffffffffffffffff1673ffffffffffffffffffffffffffffffffffffffff1681526020019081526020016000206000828254610fe591906129f9565b9250508190555050505080610ff9906128b3565b9050610e52565b508473ffffffffffffffffffffffffffffffffffffffff168673ffffffffffffffffffffffffffffffffffffffff168273ffffffffffffffffffffffffffffffffffffffff167f4a39dc06d4c0dbc64b70af90fd698a233a518aa5d07e595d983b8c0526c8f7fb8787604051611077929190612d29565b60405180910390a461108d8187878787876117cc565b61109b8187878787876117d4565b505050505050565b6110ab610d7a565b73ffffffffffffffffffffffffffffffffffffffff166110c96108ad565b73ffffffffffffffffffffffffffffffffffffffff161461111f576040517f08c379a000000000000000000000000000000000000000000000000000000000815260040161111690612dac565b60405180910390fd5b565b6000600360009054906101000a900473ffffffffffffffffffffffffffffffffffffffff16905081600360006101000a81548173ffffffffffffffffffffffffffffffffffffffff021916908373ffffffffffffffffffffffffffffffffffffffff1602179055508173ffffffffffffffffffffffffffffffffffffffff168173ffffffffffffffffffffffffffffffffffffffff167f8be0079c531659141344cd1fd0a4f28419497f9722a3daafe3b4186f6b6457e060405160405180910390a35050565b8173ffffffffffffffffffffffffffffffffffffffff168373ffffffffffffffffffffffffffffffffffffffff1603611255576040517f08c379a000000000000000000000000000000000000000000000000000000000815260040161124c90612e3e565b60405180910390fd5b80600160008573ffffffffffffffffffffffffffffffffffffffff1673ffffffffffffffffffffffffffffffffffffffff16815260200190815260200160002060008473ffffffffffffffffffffffffffffffffffffffff1673ffffffffffffffffffffffffffffffffffffffff16815260200190815260200160002060006101000a81548160ff0219169083151502179055508173ffffffffffffffffffffffffffffffffffffffff168373ffffffffffffffffffffffffffffffffffffffff167f17307eab39ab6107e8899845ad3d59bd9653f200f220920489ca2b5937696c31836040516113469190611dd1565b60405180910390a3505050565b600073ffffffffffffffffffffffffffffffffffffffff168473ffffffffffffffffffffffffffffffffffffffff16036113c2576040517f08c379a00000000000000000000000000000000000000000000000000000000081526004016113b990612ed0565b60405180910390fd5b60006113cc610d7a565b905060006113d9856119ab565b905060006113e6856119ab565b90506113f7836000898585896117c4565b8460008088815260200190815260200160002060008973ffffffffffffffffffffffffffffffffffffffff1673ffffffffffffffffffffffffffffffffffffffff168152602001908152602001600020600082825461145691906129f9565b925050819055508673ffffffffffffffffffffffffffffffffffffffff16600073ffffffffffffffffffffffffffffffffffffffff168473ffffffffffffffffffffffffffffffffffffffff167fc3d58168c5ae7397731d063d5bbf3d657854427343f4c083240f7aacaa2d0f6289896040516114d4929190612ef0565b60405180910390a46114eb836000898585896117cc565b6114fa83600089898989611a25565b50505050505050565b80600860006005548152602001908152602001600020908161152591906130c5565b5050565b600073ffffffffffffffffffffffffffffffffffffffff168473ffffffffffffffffffffffffffffffffffffffff1603611598576040517f08c379a000000000000000000000000000000000000000000000000000000000815260040161158f90612c77565b60405180910390fd5b60006115a2610d7a565b905060006115af856119ab565b905060006115bc856119ab565b90506115cc8389898585896117c4565b600080600088815260200190815260200160002060008a73ffffffffffffffffffffffffffffffffffffffff1673ffffffffffffffffffffffffffffffffffffffff16815260200190815260200160002054905085811015611663576040517f08c379a000000000000000000000000000000000000000000000000000000000815260040161165a90612d09565b60405180910390fd5b85810360008089815260200190815260200160002060008b73ffffffffffffffffffffffffffffffffffffffff1673ffffffffffffffffffffffffffffffffffffffff168152602001908152602001600020819055508560008089815260200190815260200160002060008a73ffffffffffffffffffffffffffffffffffffffff1673ffffffffffffffffffffffffffffffffffffffff168152602001908152602001600020600082825461171891906129f9565b925050819055508773ffffffffffffffffffffffffffffffffffffffff168973ffffffffffffffffffffffffffffffffffffffff168573ffffffffffffffffffffffffffffffffffffffff167fc3d58168c5ae7397731d063d5bbf3d657854427343f4c083240f7aacaa2d0f628a8a604051611795929190612ef0565b60405180910390a46117ab848a8a86868a6117cc565b6117b9848a8a8a8a8a611a25565b505050505050505050565b505050505050565b505050505050565b6117f38473ffffffffffffffffffffffffffffffffffffffff16611bfc565b156119a3578373ffffffffffffffffffffffffffffffffffffffff1663bc197c8187878686866040518663ffffffff1660e01b81526004016118399594939291906131ec565b6020604051808303816000875af192505050801561187557506040513d601f19601f820116820180604052508101906118729190613269565b60015b61191a576118816132a3565b806308c379a0036118dd57506118956132c5565b806118a057506118df565b806040517f08c379a00000000000000000000000000000000000000000000000000000000081526004016118d49190611eb2565b60405180910390fd5b505b6040517f08c379a0000000000000000000000000000000000000000000000000000000008152600401611911906133c7565b60405180910390fd5b63bc197c8160e01b7bffffffffffffffffffffffffffffffffffffffffffffffffffffffff1916817bffffffffffffffffffffffffffffffffffffffffffffffffffffffff1916146119a1576040517f08c379a000000000000000000000000000000000000000000000000000000000815260040161199890613459565b60405180910390fd5b505b505050505050565b60606000600167ffffffffffffffff8111156119ca576119c9611ed9565b5b6040519080825280602002602001820160405280156119f85781602001602082028036833780820191505090505b5090508281600081518110611a1057611a0f612855565b5b60200260200101818152505080915050919050565b611a448473ffffffffffffffffffffffffffffffffffffffff16611bfc565b15611bf4578373ffffffffffffffffffffffffffffffffffffffff1663f23a6e6187878686866040518663ffffffff1660e01b8152600401611a8a959493929190613479565b6020604051808303816000875af1925050508015611ac657506040513d601f19601f82011682018060405250810190611ac39190613269565b60015b611b6b57611ad26132a3565b806308c379a003611b2e5750611ae66132c5565b80611af15750611b30565b806040517f08c379a0000000000000000000000000000000000000000000000000000000008152600401611b259190611eb2565b60405180910390fd5b505b6040517f08c379a0000000000000000000000000000000000000000000000000000000008152600401611b62906133c7565b60405180910390fd5b63f23a6e6160e01b7bffffffffffffffffffffffffffffffffffffffffffffffffffffffff1916817bffffffffffffffffffffffffffffffffffffffffffffffffffffffff191614611bf2576040517f08c379a0000000000000000000000000000000000000000000000000000000008152600401611be990613459565b60405180910390fd5b505b505050505050565b6000808273ffffffffffffffffffffffffffffffffffffffff163b119050919050565b6000604051905090565b600080fd5b600080fd5b600073ffffffffffffffffffffffffffffffffffffffff82169050919050565b6000611c5e82611c33565b9050919050565b611c6e81611c53565b8114611c7957600080fd5b50565b600081359050611c8b81611c65565b92915050565b6000819050919050565b611ca481611c91565b8114611caf57600080fd5b50565b600081359050611cc181611c9b565b92915050565b60008060408385031215611cde57611cdd611c29565b5b6000611cec85828601611c7c565b9250506020611cfd85828601611cb2565b9150509250929050565b611d1081611c91565b82525050565b6000602082019050611d2b6000830184611d07565b92915050565b60007fffffffff0000000000000000000000000000000000000000000000000000000082169050919050565b611d6681611d31565b8114611d7157600080fd5b50565b600081359050611d8381611d5d565b92915050565b600060208284031215611d9f57611d9e611c29565b5b6000611dad84828501611d74565b91505092915050565b60008115159050919050565b611dcb81611db6565b82525050565b6000602082019050611de66000830184611dc2565b92915050565b600060208284031215611e0257611e01611c29565b5b6000611e1084828501611cb2565b91505092915050565b600081519050919050565b600082825260208201905092915050565b60005b83811015611e53578082015181840152602081019050611e38565b83811115611e62576000848401525b50505050565b6000601f19601f8301169050919050565b6000611e8482611e19565b611e8e8185611e24565b9350611e9e818560208601611e35565b611ea781611e68565b840191505092915050565b60006020820190508181036000830152611ecc8184611e79565b905092915050565b600080fd5b7f4e487b7100000000000000000000000000000000000000000000000000000000600052604160045260246000fd5b611f1182611e68565b810181811067ffffffffffffffff82111715611f3057611f2f611ed9565b5b80604052505050565b6000611f43611c1f565b9050611f4f8282611f08565b919050565b600067ffffffffffffffff821115611f6f57611f6e611ed9565b5b602082029050602081019050919050565b600080fd5b6000611f98611f9384611f54565b611f39565b90508083825260208201905060208402830185811115611fbb57611fba611f80565b5b835b81811015611fe45780611fd08882611cb2565b845260208401935050602081019050611fbd565b5050509392505050565b600082601f83011261200357612002611ed4565b5b8135612013848260208601611f85565b91505092915050565b600080fd5b600067ffffffffffffffff82111561203c5761203b611ed9565b5b61204582611e68565b9050602081019050919050565b82818337600083830152505050565b600061207461206f84612021565b611f39565b9050828152602081018484840111156120905761208f61201c565b5b61209b848285612052565b509392505050565b600082601f8301126120b8576120b7611ed4565b5b81356120c8848260208601612061565b91505092915050565b600080600080600060a086880312156120ed576120ec611c29565b5b60006120fb88828901611c7c565b955050602061210c88828901611c7c565b945050604086013567ffffffffffffffff81111561212d5761212c611c2e565b5b61213988828901611fee565b935050606086013567ffffffffffffffff81111561215a57612159611c2e565b5b61216688828901611fee565b925050608086013567ffffffffffffffff81111561218757612186611c2e565b5b612193888289016120a3565b9150509295509295909350565b6000602082840312156121b6576121b5611c29565b5b60006121c484828501611c7c565b91505092915050565b600067ffffffffffffffff8211156121e8576121e7611ed9565b5b602082029050602081019050919050565b600061220c612207846121cd565b611f39565b9050808382526020820190506020840283018581111561222f5761222e611f80565b5b835b8181101561225857806122448882611c7c565b845260208401935050602081019050612231565b5050509392505050565b600082601f83011261227757612276611ed4565b5b81356122878482602086016121f9565b91505092915050565b600080604083850312156122a7576122a6611c29565b5b600083013567ffffffffffffffff8111156122c5576122c4611c2e565b5b6122d185828601612262565b925050602083013567ffffffffffffffff8111156122f2576122f1611c2e565b5b6122fe85828601611fee565b9150509250929050565b600081519050919050565b600082825260208201905092915050565b6000819050602082019050919050565b61233d81611c91565b82525050565b600061234f8383612334565b60208301905092915050565b6000602082019050919050565b600061237382612308565b61237d8185612313565b935061238883612324565b8060005b838110156123b95781516123a08882612343565b97506123ab8361235b565b92505060018101905061238c565b5085935050505092915050565b600060208201905081810360008301526123e08184612368565b905092915050565b6123f181611c53565b82525050565b600060208201905061240c60008301846123e8565b92915050565b61241b81611db6565b811461242657600080fd5b50565b60008135905061243881612412565b92915050565b6000806040838503121561245557612454611c29565b5b600061246385828601611c7c565b925050602061247485828601612429565b9150509250929050565b600067ffffffffffffffff82111561249957612498611ed9565b5b6124a282611e68565b9050602081019050919050565b60006124c26124bd8461247e565b611f39565b9050828152602081018484840111156124de576124dd61201c565b5b6124e9848285612052565b509392505050565b600082601f83011261250657612505611ed4565b5b81356125168482602086016124af565b91505092915050565b60006020828403121561253557612534611c29565b5b600082013567ffffffffffffffff81111561255357612552611c2e565b5b61255f848285016124f1565b91505092915050565b6000806040838503121561257f5761257e611c29565b5b600061258d85828601611c7c565b925050602061259e85828601611c7c565b9150509250929050565b600080600080600060a086880312156125c4576125c3611c29565b5b60006125d288828901611c7c565b95505060206125e388828901611c7c565b94505060406125f488828901611cb2565b935050606061260588828901611cb2565b925050608086013567ffffffffffffffff81111561262657612625611c2e565b5b612632888289016120a3565b9150509295509295909350565b7f455243313135353a2061646472657373207a65726f206973206e6f742061207660008201527f616c6964206f776e657200000000000000000000000000000000000000000000602082015250565b600061269b602a83611e24565b91506126a68261263f565b604082019050919050565b600060208201905081810360008301526126ca8161268e565b9050919050565b7f4e487b7100000000000000000000000000000000000000000000000000000000600052602260045260246000fd5b6000600282049050600182168061271857607f821691505b60208210810361272b5761272a6126d1565b5b50919050565b7f455243313135353a2063616c6c6572206973206e6f7420746f6b656e206f776e60008201527f6572206e6f7220617070726f7665640000000000000000000000000000000000602082015250565b600061278d602f83611e24565b915061279882612731565b604082019050919050565b600060208201905081810360008301526127bc81612780565b9050919050565b7f455243313135353a206163636f756e747320616e6420696473206c656e67746860008201527f206d69736d617463680000000000000000000000000000000000000000000000602082015250565b600061281f602983611e24565b915061282a826127c3565b604082019050919050565b6000602082019050818103600083015261284e81612812565b9050919050565b7f4e487b7100000000000000000000000000000000000000000000000000000000600052603260045260246000fd5b7f4e487b7100000000000000000000000000000000000000000000000000000000600052601160045260246000fd5b60006128be82611c91565b91507fffffffffffffffffffffffffffffffffffffffffffffffffffffffffffffffff82036128f0576128ef612884565b5b600182019050919050565b7f5265656e7472616e637947756172643a207265656e7472616e742063616c6c00600082015250565b6000612931601f83611e24565b915061293c826128fb565b602082019050919050565b6000602082019050818103600083015261296081612924565b9050919050565b7f596f75206e65656420746f20626520617070726f76656420746f206d696e742060008201527f746f6b656e730000000000000000000000000000000000000000000000000000602082015250565b60006129c3602683611e24565b91506129ce82612967565b604082019050919050565b600060208201905081810360008301526129f2816129b6565b9050919050565b6000612a0482611c91565b9150612a0f83611c91565b9250827fffffffffffffffffffffffffffffffffffffffffffffffffffffffffffffffff03821115612a4457612a43612884565b5b828201905092915050565b7f596f75206d7573742070617920612066656520666f72206162696c697479207460008201527f6f206d696e740000000000000000000000000000000000000000000000000000602082015250565b6000612aab602683611e24565b9150612ab682612a4f565b604082019050919050565b60006020820190508181036000830152612ada81612a9e565b9050919050565b7f4f776e61626c653a206e6577206f776e657220697320746865207a65726f206160008201527f6464726573730000000000000000000000000000000000000000000000000000602082015250565b6000612b3d602683611e24565b9150612b4882612ae1565b604082019050919050565b60006020820190508181036000830152612b6c81612b30565b9050919050565b7f455243313135353a2069647320616e6420616d6f756e7473206c656e6774682060008201527f6d69736d61746368000000000000000000000000000000000000000000000000602082015250565b6000612bcf602883611e24565b9150612bda82612b73565b604082019050919050565b60006020820190508181036000830152612bfe81612bc2565b9050919050565b7f455243313135353a207472616e7366657220746f20746865207a65726f20616460008201527f6472657373000000000000000000000000000000000000000000000000000000602082015250565b6000612c61602583611e24565b9150612c6c82612c05565b604082019050919050565b60006020820190508181036000830152612c9081612c54565b9050919050565b7f455243313135353a20696e73756666696369656e742062616c616e636520666f60008201527f72207472616e7366657200000000000000000000000000000000000000000000602082015250565b6000612cf3602a83611e24565b9150612cfe82612c97565b604082019050919050565b60006020820190508181036000830152612d2281612ce6565b9050919050565b60006040820190508181036000830152612d438185612368565b90508181036020830152612d578184612368565b90509392505050565b7f4f776e61626c653a2063616c6c6572206973206e6f7420746865206f776e6572600082015250565b6000612d96602083611e24565b9150612da182612d60565b602082019050919050565b60006020820190508181036000830152612dc581612d89565b9050919050565b7f455243313135353a2073657474696e6720617070726f76616c2073746174757360008201527f20666f722073656c660000000000000000000000000000000000000000000000602082015250565b6000612e28602983611e24565b9150612e3382612dcc565b604082019050919050565b60006020820190508181036000830152612e5781612e1b565b9050919050565b7f455243313135353a206d696e7420746f20746865207a65726f2061646472657360008201527f7300000000000000000000000000000000000000000000000000000000000000602082015250565b6000612eba602183611e24565b9150612ec582612e5e565b604082019050919050565b60006020820190508181036000830152612ee981612ead565b9050919050565b6000604082019050612f056000830185611d07565b612f126020830184611d07565b9392505050565b60008190508160005260206000209050919050565b60006020601f8301049050919050565b600082821b905092915050565b600060088302612f7b7fffffffffffffffffffffffffffffffffffffffffffffffffffffffffffffffff82612f3e565b612f858683612f3e565b95508019841693508086168417925050509392505050565b6000819050919050565b6000612fc2612fbd612fb884611c91565b612f9d565b611c91565b9050919050565b6000819050919050565b612fdc83612fa7565b612ff0612fe882612fc9565b848454612f4b565b825550505050565b600090565b613005612ff8565b613010818484612fd3565b505050565b5b8181101561303457613029600082612ffd565b600181019050613016565b5050565b601f8211156130795761304a81612f19565b61305384612f2e565b81016020851015613062578190505b61307661306e85612f2e565b830182613015565b50505b505050565b600082821c905092915050565b600061309c6000198460080261307e565b1980831691505092915050565b60006130b5838361308b565b9150826002028217905092915050565b6130ce82611e19565b67ffffffffffffffff8111156130e7576130e6611ed9565b5b6130f18254612700565b6130fc828285613038565b600060209050601f83116001811461312f576000841561311d578287015190505b61312785826130a9565b86555061318f565b601f19841661313d86612f19565b60005b8281101561316557848901518255600182019150602085019450602081019050613140565b86831015613182578489015161317e601f89168261308b565b8355505b6001600288020188555050505b505050505050565b600081519050919050565b600082825260208201905092915050565b60006131be82613197565b6131c881856131a2565b93506131d8818560208601611e35565b6131e181611e68565b840191505092915050565b600060a08201905061320160008301886123e8565b61320e60208301876123e8565b81810360408301526132208186612368565b905081810360608301526132348185612368565b9050818103608083015261324881846131b3565b90509695505050505050565b60008151905061326381611d5d565b92915050565b60006020828403121561327f5761327e611c29565b5b600061328d84828501613254565b91505092915050565b60008160e01c9050919050565b600060033d11156132c25760046000803e6132bf600051613296565b90505b90565b600060443d10613352576132d7611c1f565b60043d036004823e80513d602482011167ffffffffffffffff821117156132ff575050613352565b808201805167ffffffffffffffff81111561331d5750505050613352565b80602083010160043d03850181111561333a575050505050613352565b61334982602001850186611f08565b82955050505050505b90565b7f455243313135353a207472616e7366657220746f206e6f6e204552433131353560008201527f526563656976657220696d706c656d656e746572000000000000000000000000602082015250565b60006133b1603483611e24565b91506133bc82613355565b604082019050919050565b600060208201905081810360008301526133e0816133a4565b9050919050565b7f455243313135353a204552433131353552656365697665722072656a6563746560008201527f6420746f6b656e73000000000000000000000000000000000000000000000000602082015250565b6000613443602883611e24565b915061344e826133e7565b604082019050919050565b6000602082019050818103600083015261347281613436565b9050919050565b600060a08201905061348e60008301886123e8565b61349b60208301876123e8565b6134a86040830186611d07565b6134b56060830185611d07565b81810360808301526134c781846131b3565b9050969550505050505056fea26469706673582212202e593264cf5aef805e30b49050cbc6d04337046d6d335b31cf493a1f7eb531d064736f6c634300080f0033",
  "immutableReferences": {},
  "source": "pragma solidity ^0.8.1;\n// FeeForMinting\n// Only Approved Users can mint\n// metadata is passed as an argument for every mint\n// SPDX-License-Identifier: MIT\n\nimport \"@openzeppelin/contracts/token/ERC1155/ERC1155.sol\";\nimport \"@openzeppelin/contracts/access/Ownable.sol\";\nimport \"@openzeppelin/contracts/security/ReentrancyGuard.sol\";\n\ncontract nft_contract is ERC1155, Ownable, ReentrancyGuard {\n    uint256 Token_id = 0;\n    uint256 Fee_for_minting = 0.1 ether;\n    mapping(address => bool) public Approved_users_to_mint;\n    mapping(uint256 => string) public _uris;\n\n\n    modifier is_user_approved {\n        require(Approved_users_to_mint[_msgSender()], \"You need to be approved to mint tokens\");\n        _;\n    }\n\n    constructor(string memory zero_id_uri) ERC1155(zero_id_uri) {\n        emit URI(zero_id_uri , Token_id);\n        Token_id += 1;\n        Approved_users_to_mint[_msgSender()] = true;\n    }\n\n    function _setURI(string memory newuri) override internal {\n        _uris[Token_id] = newuri;\n    }\n\n    function uri(uint256 id) public override view returns(string memory) {\n        return _uris[id];\n    }\n\n    function mint(string memory newuri) public nonReentrant is_user_approved{\n        _mint(_msgSender(), Token_id, 1, \"\");\n        _setURI(newuri);\n        emit URI(newuri , Token_id);\n        Token_id +=1;\n    }\n\n    function approve_user_to_mint() public payable {\n\n        require(msg.value >= Fee_for_minting, \"You must pay a fee for ability to mint\");\n        Approved_users_to_mint[_msgSender()] = true;\n\n    }\n\n    function withdraw_minting_fees() payable public onlyOwner {\n\n        payable(_msgSender()).transfer(address(this).balance);\n\n    }\n\n    receive() external payable {\n    }\n\n}",
  "sourcePath": "/Users/pawelpiwowarski/youtube_tutorial/contracts/nft_contract.sol",
  "compiler": {
    "name": "solc",
    "version": "0.8.15+commit.e14f2714.Emscripten.clang"
  },
  "schemaVersion": "3.4.8",
  "updatedAt": "2022-07-06T11:37:26.068Z",
  "devdoc": {
    "kind": "dev",
    "methods": {
      "balanceOf(address,uint256)": {
        "details": "See {IERC1155-balanceOf}. Requirements: - `account` cannot be the zero address."
      },
      "balanceOfBatch(address[],uint256[])": {
        "details": "See {IERC1155-balanceOfBatch}. Requirements: - `accounts` and `ids` must have the same length."
      },
      "isApprovedForAll(address,address)": {
        "details": "See {IERC1155-isApprovedForAll}."
      },
      "owner()": {
        "details": "Returns the address of the current owner."
      },
      "renounceOwnership()": {
        "details": "Leaves the contract without owner. It will not be possible to call `onlyOwner` functions anymore. Can only be called by the current owner. NOTE: Renouncing ownership will leave the contract without an owner, thereby removing any functionality that is only available to the owner."
      },
      "safeBatchTransferFrom(address,address,uint256[],uint256[],bytes)": {
        "details": "See {IERC1155-safeBatchTransferFrom}."
      },
      "safeTransferFrom(address,address,uint256,uint256,bytes)": {
        "details": "See {IERC1155-safeTransferFrom}."
      },
      "setApprovalForAll(address,bool)": {
        "details": "See {IERC1155-setApprovalForAll}."
      },
      "supportsInterface(bytes4)": {
        "details": "See {IERC165-supportsInterface}."
      },
      "transferOwnership(address)": {
        "details": "Transfers ownership of the contract to a new account (`newOwner`). Can only be called by the current owner."
      }
    },
    "version": 1
  },
  "userdoc": {
    "kind": "user",
    "methods": {},
    "version": 1
  }
}